:040000007DEF00F0A0
:100008004182FACF32F0FBCF33F0D9CF34F0DACFD8
:1000180035F00E01C2AB13EF00F015EF00F020EF42
:1000280000F0CAAB1AEF00F01CEF00F020EF00F070
:1000380095EC07F073EF00F0C2A925EF00F027EF69
:1000480000F032EF00F0CAA92CEF00F02EEF00F01C
:1000580032EF00F0AAEC06F073EF00F0F2AC37EFE5
:1000680000F039EF00F073EF00F0C5A93EEF00F0A3
:1000780040EF00F056EF00F0CDA945EF00F047EF54
:1000880000F056EF00F002D854EF00F00500FA6EC9
:100098002C50FD6E2D50FE6EF850FF6EFA50120077
:1000A80073EF00F0C5AB5BEF00F05DEF00F073EFAE
:1000B80000F0CDAB62EF00F064EF00F073EF00F0FA
:1000C80002D871EF00F00500FA6E2A50FD6E2B5031
:1000D800FE6EF850FF6EFA50120073EF00F035C054
:1000E800DAFF34C0D9FF33C0FBFF32C0FAFF4192B8
:0600F80011001AEF07F0F1
:100800000000D5BE06EF04F008EF04F001EF04F09D
:1008100040EC07F00009D8B410EF04F012EF04F038
:100820002CEF04F0000E3E6E000E3D6E1DEC06F047
:10083000376E3D50390FD96EDA6A37C0DFFF3D4A57
:100840003E2A3E5009E1040E3D5CD8A02AEF04F098
:100850002CEF04F016EF04F0000E406E000E3F6E19
:10086000020E3F184010D8B438EF04F03AEF04F00D
:10087000BCEF04F03F50390FD96EDA6A520EDE1821
:10088000D8A445EF04F047EF04F07BEF04F03FC03D
:1008900037F0010E37263750390FD96EDA6A530E0A
:1008A000DE18D8A456EF04F058EF04F07BEF04F004
:1008B0003FC037F0020E37263750390FD96EDA6A4B
:1008C0004D0EDE18D8A467EF04F069EF04F07BEF5B
:1008D00004F0410EF3EC05F04BEC07F00009D8B43E
:1008E00074EF04F076EF04F06CEF04F021802192B5
:1008F0002198C9EF04F03F50390FD96EDA6A440EDF
:10090000DE18D8A486EF04F088EF04F0BCEF04F002
:100910003FC037F0010E37263750390FD96EDA6AEB
:10092000530EDE18D8A497EF04F099EF04F0BCEF53
:1009300004F03FC037F0020E37263750390FD96E1A
:10094000DA6A4D0EDE18D8A4A8EF04F0AAEF04F07E
:10095000BCEF04F0410EF3EC05F04BEC07F000099E
:10096000D8B4B5EF04F0B7EF04F0ADEF04F0218296
:1009700021902198C9EF04F03F4A402A405009E1F4
:10098000040E3F5CD8A0C7EF04F0C9EF04F030EFCD
:1009900004F02198120027EC07F0F28EF28C2192DD
:1009A000218021A8D6EF04F0D8EF04F0DAEF04F0AC
:1009B00001EC04F021A2DFEF04F0E1EF04F0E3EF3B
:1009C00004F055EC07F021A0E8EF04F0EAEF04F0A2
:1009D000ECEF04F05FEC07F021A6F1EF04F0F3EF89
:1009E00004F0F5EF04F0E8EC06F00F011AB5FBEFA8
:1009F00004F0FDEF04F013EF05F0D5BE02EF05F0B3
:100A000004EF05F013EF05F00E01CDBB0AEF05F082
:100A10000CEF05F013EF05F0CDB911EF05F013EF72
:100A200005F01AEF05F021A418EF05F01AEF05F014
:100A3000D1EF04F0030000000000D1EF04F07DEFDF
:100A400000F01C50010FD96EDA6ADF6A9DA42BEF0B
:100A500005F02DEF05F03FEF05F01C50010FD96EAA
:100A6000DA6ADF8202D83FEF05F00500FA6E265001
:100A7000FD6E2750FE6EF850FF6EFA5012009DA2D8
:100A800044EF05F046EF05F058EF05F01C50010F5C
:100A9000D96EDA6ADF8402D858EF05F00500FA6EE5
:100AA0002450FD6E2550FE6EF850FF6EFA50120075
:100AB0001C50010FD96EDA6ADF50D8B462EF05F02E
:100AC00064EF05F073EF05F002D871EF05F0050053
:100AD000FA6E2250FD6E2350FE6EF850FF6EFA50F3
:100AE000120075EF05F0D4EC06F01200000E836ED4
:100AF000000E846E000E856E000E886EC00E896E2C
:100B0000A40E8A6E530E0F01216F19691169000E30
:100B10002D6F000E186F000E106F000E206F000E6C
:100B20000F6F000E176F000E1F6F0E6916691E699A
:100B30000D6915691D69080E2A6F1A951A9B1B9578
:100B40001B8B1C851C8B7E0E366E0D0E376E77EC64
:100B500007F0500E366E0F0E376E72EC07F00E0176
:100B6000C289170EB56F090EFD6F12000E01C59BED
:100B7000420E366E0A0E376E81EC07F00E01C599F3
:100B8000840E366E0C0E376E7CEC07F00A0E9F6EEC
:100B9000900E9D6E240E9E6E190E9B6E000E9C6E26
:100BA000520E366E0F0E376E8BEC07F0340E366E2B
:100BB0000F0E376E86EC07F03A0E366E0F0E376E5C
:100BC00090EC07F0000E196E000E1F6E000E1E6EE8
:100BD000080E1D6E000E1C6E000E1B6E000E1A6EAF
:100BE0000E01C58B1200366E1D50D8B4FAEF05F019
:100BF000FCEF05F0F4EF05F00E01C5B902EF06F0C9
:100C000004EF06F008EF06F036C09AFF1BEF06F07F
:100C1000C5991F50110FD96EDA6A36C0DFFF1F2A3F
:100C2000070E1F6416EF06F018EF06F01AEF06F035
:100C3000000E1F6E1D06C58912001A50D8B423EF8E
:100C400006F025EF06F01DEF06F01B50010FD96EE0
:100C5000DA6ADF50196E1B50090FD96EDA6ADF505D
:100C6000366E1B2A070E1B6438EF06F03AEF06F0CB
:100C70003CEF06F0000E1B6E0E01C59B1A06C58BDD
:100C800036501200080E1D6048EF06F04AEF06F0DD
:100C90005EEF06F01E50110FD96EDA6ADF509A6EC1
:100CA0001E2A070E1E6457EF06F059EF06F05BEFA1
:100CB00006F0000E1E6E1D2A60EF06F00E01C599AB
:100CC00012002E502F10D8B468EF06F06AEF06F02D
:100CD00077EF06F002D877EF06F00500FA6E2E5097
:100CE000FD6E2F50FE6EF850FF6EFA5012000F018D
:100CF0001A9B120030503110D8B481EF06F083EF08
:100D000006F090EF06F002D890EF06F00500FA6EBC
:100D10003050FD6E3150FE6EF850FF6EFA501200EA
:100D20000F011A95120028502910D8B49AEF06F036
:100D30009CEF06F0A9EF06F002D8A9EF06F0050037
:100D4000FA6E2850FD6E2950FE6EF850FF6EFA5074
:100D5000120012000F011AA5B0EF06F0B2EF06F074
:100D6000B4EF06F07AEC06F00F011AABBAEF06F01A
:100D7000BCEF06F0BEEF06F061EC06F01200202A90
:100D8000020E2018D8A4C7EF06F0C9EF06F0D1EF85
:100D900006F08586000E206E0E01C299A6EC07F0C3
:100DA00021860F011A9512001C50090FD96EDA6ABC
:100DB00099CFDFFF1C2A070E1C64E1EF06F0E3EF7A
:100DC00006F0E5EF06F0000E1C6E1A2A21881200CC
:100DD0004D0EF3EC05F0440EF3EC05F021964BECD0
:100DE00007F00009D8B4F7EF06F0F9EF06F0EFEFDF
:100DF00006F012006F0ED66EF30ED46E000ED36E98
:100E00000E01CA9BC28BCE0E366E0E0E376E6DEC87
:100E100007F0800ED56E1200000E0E01E16F7E0EFF
:100E2000E26F660EE36F0F0EE46F110EE56F000EBA
:100E3000E66F120000EE01F0210EEE6AE806FDE119
:100E400041904192000EF86E0001CBEF04F0A0EC4F
:100E500007F00CEC07F076EC05F034EC07F0FAEC58
:100E600006F0B6EC05F01200620E0E01D86F000E0F
:100E7000DA6F000EDC6F020EDE6F000EDD6F120007
:100E80001A50D8A446EF07F049EF07F0010E4AEFD9
:100E900007F0000E12009EB250EF07F053EF07F07C
:100EA000010E54EF07F0000E12000F011C950E0109
:100EB000C29BA2EC07F085962184219212008A84BD
:100EC0000F011C850E01C28B219021941200859682
:100ED000A4EC07F00E01C289120036C028F037C01A
:100EE00029F0120036C02EF037C02FF0120036C0A5
:100EF00030F037C031F0120036C02CF037C02DF082
:100F0000120036C02AF037C02BF0120036C024F091
:100F100037C025F0120036C026F037C027F0120087
:100F200036C022F037C023F012000E01CA9B93ECAA
:100F300006F012009D989D881200D4EC06F0120075
:100F4000F29A1200D59E1200D59E1200D58E120084
:040F50001200120079
:020000040030CA
:0C000000ECFFBFFF9FFFFFFFFFFFFFFFB3
:00000001FF
