:040000007DEF00F0A0
:100008003882FACF32F0FBCF33F0D9CF34F0DACFE1
:1000180035F00E01C2AB13EF00F015EF00F020EF42
:1000280000F0CAAB1AEF00F01CEF00F020EF00F070
:100038002FEC06F073EF00F0C2A925EF00F027EFD0
:1000480000F032EF00F0CAA92CEF00F02EEF00F01C
:1000580032EF00F070EC05F073EF00F0F2AC37EF20
:1000680000F039EF00F073EF00F0C5A93EEF00F0A3
:1000780040EF00F056EF00F0CDA945EF00F047EF54
:1000880000F056EF00F002D854EF00F00500FA6EC9
:100098002C50FD6E2D50FE6EF850FF6EFA50120077
:1000A80073EF00F0C5AB5BEF00F05DEF00F073EFAE
:1000B80000F0CDAB62EF00F064EF00F073EF00F0FA
:1000C80002D871EF00F00500FA6E2A50FD6E2B5031
:1000D800FE6EF850FF6EFA50120073EF00F035C054
:1000E800DAFF34C0D9FF33C0FBFF32C0FAFF3892C1
:0600F8001100CCEF05F041
:1008000000001C50010FD96EDA6ADF6A9DA40BEF5D
:1008100004F00DEF04F01FEF04F01C50010FD96E2F
:10082000DA6ADF8202D81FEF04F00500FA6E265064
:10083000FD6E2750FE6EF850FF6EFA5012009DA21A
:1008400024EF04F026EF04F038EF04F01C50010F01
:10085000D96EDA6ADF8402D838EF04F00500FA6E48
:100860002450FD6E2550FE6EF850FF6EFA501200B7
:100870001C50010FD96EDA6ADF50D8B442EF04F091
:1008800044EF04F053EF04F002D851EF04F00500F8
:10089000FA6E2250FD6E2350FE6EF850FF6EFA5035
:1008A000120055EF04F099EC05F01200000E836E73
:1008B000000E846E000E856E000E886EC00E896E6E
:1008C000A40E8A6E530E0F01216F19691169000E73
:1008D0002D6F000E186F000E106F000E206F000EAF
:1008E0000F6F000E176F000E1F6F0E6916691E69DD
:1008F0000D6915691D69080E2A6F1A951A9B1B95BB
:100900001B8B1C851C8B0A0E366E0B0E376E11EC82
:1009100006F0840E366E0C0E376E0CEC06F00E01EF
:10092000C289170EB56F090EFD6F12000E01C59B2F
:10093000020E366E080E376E1BEC06F00E01C599DE
:10094000100E366E0A0E376E16EC06F00A0E9F6E0B
:10095000900E9D6E240E9E6E190E9B6E000E9C6E68
:10096000860E366E0C0E376E25EC06F0680E366E6F
:100970000C0E376E20EC06F06E0E366E0C0E376ED7
:100980002AEC06F0000E196E000E1F6E000E1E6E91
:10099000080E1D6E000E1C6E000E1B6E000E1A6EF1
:1009A0000E01C58B1200D9EC05F0F28EF28C20926C
:1009B000208020A2DEEF04F0E0EF04F0E2EF04F08C
:1009C000F2EC05F020A0E7EF04F0E9EF04F0EBEF24
:1009D00004F0FAEC05F00F011AB5F1EF04F0F3EFB3
:1009E00004F0FAEF04F0D5AEF8EF04F0FAEF04F0FB
:1009F00001EF05F020A4FFEF04F001EF05F0D9EFBF
:100A000004F0030000000000D9EF04F07DEF00F0D7
:100A1000080E1D600EEF05F010EF05F024EF05F055
:100A20001E50110FD96EDA6ADF509A6E1E2A070E19
:100A30001E641DEF05F01FEF05F021EF05F0000E1D
:100A40001E6E1D2A26EF05F00E01C59912002E50CC
:100A50002F10D8B42EEF05F030EF05F03DEF05F084
:100A600002D83DEF05F00500FA6E2E50FD6E2F50B6
:100A7000FE6EF850FF6EFA5012000F011A9B120022
:100A800030503110D8B447EF05F049EF05F056EF7C
:100A900005F002D856EF05F00500FA6E3050FD6EF5
:100AA0003150FE6EF850FF6EFA5012000F011A9589
:100AB000120028502910D8B460EF05F062EF05F05D
:100AC0006FEF05F002D86FEF05F00500FA6E2850C1
:100AD000FD6E2950FE6EF850FF6EFA5012001200A3
:100AE0000F011AA576EF05F078EF05F07AEF05F023
:100AF00040EC05F00F011AAB80EF05F082EF05F036
:100B000084EF05F027EC05F01200212A030E2118CE
:100B1000D8A48DEF05F08FEF05F096EF05F08586F0
:100B2000000E216E0E01C29940EC06F00F011A95DD
:100B300012001C50090FD96EDA6A99CFDFFF1C2A08
:100B4000070E1C64A6EF05F0A8EF05F0AAEF05F06C
:100B5000000E1C6E1A2A12006F0ED66EF30ED46EA3
:100B6000000ED36E0E01CA9BC28B020E366E0C0EA7
:100B7000376E07EC06F0800ED56E1200000E0E01E7
:100B8000E16F7E0EE26F660EE36F0F0EE46F110EE3
:100B9000E56F000EE66F120000EE01F0210EEE6A26
:100BA000E806FDE138903892000EF86E0001D3EFB0
:100BB00004F03AEC06F0BEEC05F056EC04F0E6EC7E
:100BC00005F0ACEC05F096EC04F01200620E0E019C
:100BD000D86F000EDA6F000EDC6F020EDE6F000EB3
:100BE000DD6F12000E01C299C29B3CEC06F020841E
:100BF000209212008A840E01C289C28B2090209418
:100C0000120085963EEC06F00E01C289120036C035
:100C100028F037C029F0120036C02EF037C02FF070
:100C2000120036C030F037C031F0120036C02CF060
:100C300037C02DF0120036C02AF037C02BF012005A
:100C400036C024F037C025F0120036C026F037C079
:100C500027F0120036C022F037C023F012000E0138
:100C6000CA9B59EC05F012009D989D88120099ECE2
:100C700005F01200F29A1200D59E1200D59E1200C5
:080C8000D58E120012001200D3
:020000040030CA
:0C000000ECFFBFFF9FFFFFFFFFFFFFFFB3
:00000001FF
