:040000007DEF00F0A0
:100008004182FACF32F0FBCF33F0D9CF34F0DACFD8
:1000180035F00E01C2AB13EF00F015EF00F020EF42
:1000280000F0CAAB1AEF00F01CEF00F020EF00F070
:100038008DEC07F073EF00F0C2A925EF00F027EF71
:1000480000F032EF00F0CAA92CEF00F02EEF00F01C
:1000580032EF00F0A3EC06F073EF00F0F2AC37EFEC
:1000680000F039EF00F073EF00F0C5A93EEF00F0A3
:1000780040EF00F056EF00F0CDA945EF00F047EF54
:1000880000F056EF00F002D854EF00F00500FA6EC9
:100098002C50FD6E2D50FE6EF850FF6EFA50120077
:1000A80073EF00F0C5AB5BEF00F05DEF00F073EFAE
:1000B80000F0CDAB62EF00F064EF00F073EF00F0FA
:1000C80002D871EF00F00500FA6E2A50FD6E2B5031
:1000D800FE6EF850FF6EFA50120073EF00F035C054
:1000E800DAFF34C0D9FF33C0FBFF32C0FAFF4192B8
:0600F800110013EF07F0F8
:10080000000039EC07F00009D8B409EF04F00BEF51
:1008100004F025EF04F0000E3E6E000E3D6E16EC67
:1008200006F0376E3D50390FD96EDA6A37C0DFFFF8
:100830003D4A3E2A3E5009E1040E3D5CD8A023EF1C
:1008400004F025EF04F00FEF04F0000E406E000EF0
:100850003F6E020E3F184010D8B431EF04F033EF72
:1008600004F0B5EF04F03F50390FD96EDA6A520E3A
:10087000DE18D8A43EEF04F040EF04F074EF04F06B
:100880003FC037F0010E37263750390FD96EDA6A7C
:10089000530EDE18D8A44FEF04F051EF04F074EFBC
:1008A00004F03FC037F0020E37263750390FD96EAB
:1008B000DA6A4D0EDE18D8A460EF04F062EF04F09F
:1008C00074EF04F0410EECEC05F044EC07F0000985
:1008D000D8B46DEF04F06FEF04F065EF04F0218001
:1008E00021922198C2EF04F03F50390FD96EDA6A95
:1008F000440EDE18D8A47FEF04F081EF04F0B5EFCA
:1009000004F03FC037F0010E37263750390FD96E4B
:10091000DA6A530EDE18D8A490EF04F092EF04F0D8
:10092000B5EF04F03FC037F0020E37263750390FCD
:10093000D96EDA6A4D0EDE18D8A4A1EF04F0A3EF49
:1009400004F0B5EF04F0410EECEC05F044EC07F0D8
:100950000009D8B4AEEF04F0B0EF04F0A6EF04F055
:10096000218221902198C2EF04F03F4A402A405052
:1009700009E1040E3F5CD8A0C0EF04F0C2EF04F020
:1009800029EF04F02198120020EC07F0F28EF28C8F
:100990002192218021A8CFEF04F0D1EF04F0D3EF12
:1009A00004F001EC04F021A2D8EF04F0DAEF04F037
:1009B000DCEF04F04EEC07F021A0E1EF04F0E3EFF0
:1009C00004F0E5EF04F057EC07F021A6EAEF04F09D
:1009D000ECEF04F0EEEF04F0E1EC06F00F011AB5D5
:1009E000F4EF04F0F6EF04F00CEF05F0D5BEFBEFEA
:1009F00004F0FDEF04F00CEF05F00E01CDBB03EFAA
:100A000005F005EF05F00CEF05F0CDA90AEF05F0B4
:100A10000CEF05F013EF05F021A411EF05F013EF33
:100A200005F0CAEF04F0030000000000CAEF04F074
:100A30007DEF00F01C50010FD96EDA6ADF6A9DA4C9
:100A400024EF05F026EF05F038EF05F01C50010FFC
:100A5000D96EDA6ADF8202D838EF05F00500FA6E47
:100A60002650FD6E2750FE6EF850FF6EFA501200B1
:100A70009DA23DEF05F03FEF05F051EF05F01C5052
:100A8000010FD96EDA6ADF8402D851EF05F0050054
:100A9000FA6E2450FD6E2550FE6EF850FF6EFA502F
:100AA00012001C50010FD96EDA6ADF50D8B45BEF28
:100AB00005F05DEF05F06CEF05F002D86AEF05F088
:100AC0000500FA6E2250FD6E2350FE6EF850FF6E48
:100AD000FA5012006EEF05F0CDEC06F01200000E99
:100AE000836E000E846E000E856E000E886EC00E42
:100AF000896EA40E8A6E530E0F01216F1969116958
:100B0000000E2D6F000E186F000E106F000E206F7C
:100B1000000E0F6F000E176F000E1F6F0E69166923
:100B20001E690D6915691D69080E2A6F1A951A9BB1
:100B30001B951B8B1C851C8B700E366E0D0E376E35
:100B40006FEC07F0400E366E0F0E376E6AEC07F052
:100B50000E01C289170EB56F090EFD6F12000E014E
:100B6000C59B340E366E0A0E376E79EC07F00E0117
:100B7000C599760E366E0C0E376E74EC07F00A0EC1
:100B80009F6E900E9D6E240E9E6E190E9B6E000E33
:100B90009C6E420E366E0F0E376E83EC07F0240EFD
:100BA000366E0F0E376E7EEC07F02A0E366E0F0E85
:100BB000376E88EC07F0000E196E000E1F6E000EE7
:100BC0001E6E080E1D6E000E1C6E000E1B6E000EBB
:100BD0001A6E0E01C58B1200366E1D50D8B4F3EF9D
:100BE00005F0F5EF05F0EDEF05F00E01C5B9FBEFEF
:100BF00005F0FDEF05F001EF06F036C09AFF14EFA7
:100C000006F0C5991F50110FD96EDA6A36C0DFFFA2
:100C10001F2A070E1F640FEF06F011EF06F013EF07
:100C200006F0000E1F6E1D06C58912001A50D8B4BA
:100C30001CEF06F01EEF06F016EF06F01B50010F3A
:100C4000D96EDA6ADF50196E1B50090FD96EDA6A55
:100C5000DF50366E1B2A070E1B6431EF06F033EFB0
:100C600006F035EF06F0000E1B6E0E01C59B1A064E
:100C7000C58B36501200080E1D6041EF06F043EFA1
:100C800006F057EF06F01E50110FD96EDA6ADF50EA
:100C90009A6E1E2A070E1E6450EF06F052EF06F001
:100CA00054EF06F0000E1E6E1D2A59EF06F00E01DD
:100CB000C59912002E502F10D8B461EF06F063EFE3
:100CC00006F070EF06F002D870EF06F00500FA6E3D
:100CD0002E50FD6E2F50FE6EF850FF6EFA5012002F
:100CE0000F011A9B120030503110D8B47AEF06F081
:100CF0007CEF06F089EF06F002D889EF06F00500D8
:100D0000FA6E3050FD6E3150FE6EF850FF6EFA50A4
:100D100012000F011A95120028502910D8B493EF31
:100D200006F095EF06F0A2EF06F002D8A2EF06F06B
:100D30000500FA6E2850FD6E2950FE6EF850FF6EC9
:100D4000FA50120012000F011AA5A9EF06F0ABEF3E
:100D500006F0ADEF06F073EC06F00F011AABB3EF3F
:100D600006F0B5EF06F0B7EF06F05AEC06F0120009
:100D7000202A020E2018D8A4C0EF06F0C2EF06F019
:100D8000CAEF06F08586000E206E0E01C2999EEC19
:100D900007F021860F011A9512001C50090FD96E19
:100DA000DA6A99CFDFFF1C2A070E1C64DAEF06F01F
:100DB000DCEF06F0DEEF06F0000E1C6E1A2A21882A
:100DC00012004D0EECEC05F0440EECEC05F0219613
:100DD00044EC07F00009D8B4F0EF06F0F2EF06F0AB
:100DE000E8EF06F012006F0ED66EF30ED46E000E12
:100DF000D36E0E01CA9BC28BBE0E366E0E0E376EC0
:100E000065EC07F0800ED56E1200000E0E01E16F4A
:100E10007E0EE26F660EE36F0F0EE46F110EE56F4C
:100E2000000EE66F120000EE01F0210EEE6AE806F9
:100E3000FDE141904192000EF86E0001C4EF04F014
:100E400098EC07F005EC07F06FEC05F02DEC07F0DF
:100E5000F3EC06F0AFEC05F01200620E0E01D86F55
:100E6000000EDA6F000EDC6F020EDE6F000EDD6F1B
:100E700012001A50D8A43FEF07F042EF07F0010E1E
:100E800043EF07F0000E12009EB249EF07F04CEF5F
:100E900007F0010E4DEF07F0000E12000F011C9538
:100EA0000E01C29B9AEC07F02184219212008A84E1
:100EB0000F011C850E01C28B219021941200859692
:100EC0009CEC07F00E01C289120036C028F037C032
:100ED00029F0120036C02EF037C02FF0120036C0B5
:100EE00030F037C031F0120036C02CF037C02DF092
:100EF000120036C02AF037C02BF0120036C024F0A2
:100F000037C025F0120036C026F037C027F0120097
:100F100036C022F037C023F012000E01CA9B8CECC1
:100F200006F012009D989D881200CDEC06F012008C
:100F3000F29A1200D59E1200D59E1200D58E120094
:040F40001200120089
:020000040030CA
:0C000000ECFFBFFF9FFFFFFFFFFFFFFFB3
:00000001FF
