:040000007DEF00F0A0
:100008003882FACF32F0FBCF33F0D9CF34F0DACFE1
:1000180035F00E01C2AB13EF00F015EF00F020EF42
:1000280000F0CAAB1AEF00F01CEF00F020EF00F070
:1000380081EC06F073EF00F0C2A925EF00F027EF7E
:1000480000F032EF00F0CAA92CEF00F02EEF00F01C
:1000580032EF00F0A3EC05F073EF00F0F2AC37EFED
:1000680000F039EF00F073EF00F0C5A93EEF00F0A3
:1000780040EF00F056EF00F0CDA945EF00F047EF54
:1000880000F056EF00F002D854EF00F00500FA6EC9
:100098002C50FD6E2D50FE6EF850FF6EFA50120077
:1000A80073EF00F0C5AB5BEF00F05DEF00F073EFAE
:1000B80000F0CDAB62EF00F064EF00F073EF00F0FA
:1000C80002D871EF00F00500FA6E2A50FD6E2B5031
:1000D800FE6EF850FF6EFA50120073EF00F035C054
:1000E800DAFF34C0D9FF33C0FBFF32C0FAFF3892C1
:0600F800110012EF06F0FA
:1008000000001C50010FD96EDA6ADF6A9DA40BEF5D
:1008100004F00DEF04F01FEF04F01C50010FD96E2F
:10082000DA6ADF8202D81FEF04F00500FA6E265064
:10083000FD6E2750FE6EF850FF6EFA5012009DA21A
:1008400024EF04F026EF04F038EF04F01C50010F01
:10085000D96EDA6ADF8402D838EF04F00500FA6E48
:100860002450FD6E2550FE6EF850FF6EFA501200B7
:100870001C50010FD96EDA6ADF50D8B442EF04F091
:1008800044EF04F053EF04F002D851EF04F00500F8
:10089000FA6E2250FD6E2350FE6EF850FF6EFA5035
:1008A000120055EF04F0CDEC05F01200000E836E3F
:1008B000000E846E000E856E000E886EC00E896E6E
:1008C000A40E8A6E530E0F01216F19691169000E73
:1008D0002D6F000E186F000E106F000E206F000EAF
:1008E0000F6F000E176F000E1F6F0E6916691E69DD
:1008F0000D6915691D69080E2A6F1A951A9B1B95BB
:100900001B8B1C851C8B700E366E0B0E376E63ECCA
:1009100006F0280E366E0D0E376E5EEC06F00E01F8
:10092000C289170EB56F090EFD6F12001FEC06F09D
:10093000F28EF28C2192218021A2A1EF04F0A3EF8C
:1009400004F0A5EF04F042EC06F021A0AAEF04F0B9
:10095000ACEF04F0AEEF04F04BEC06F021A6B3EFE1
:1009600004F0B5EF04F0B7EF04F0E0EC05F00F0190
:100970001AB5BDEF04F0BFEF04F0C6EF04F0D5AE3A
:10098000C4EF04F0C6EF04F0CDEF04F021A4CBEFE8
:1009900004F0CDEF04F09CEF04F003000000000031
:1009A0009CEF04F07DEF00F00E01C59B020E366E49
:1009B000080E376E6DEC06F00E01C599760E366E98
:1009C0000A0E376E68EC06F00A0E9F6E900E9D6E52
:1009D000240E9E6E190E9B6E000E9C6E2A0E366EB5
:1009E0000D0E376E77EC06F00C0E366E0D0E376E70
:1009F00072EC06F0120E366E0D0E376E7CEC06F0C1
:100A0000000E196E000E1F6E000E1E6E080E1D6E7B
:100A1000000E1C6E000E1B6E000E1A6E0E01C58BB2
:100A20001200366E1D50D8B418EF05F01AEF05F01D
:100A300012EF05F00E01C5B920EF05F022EF05F029
:100A400026EF05F036C09AFF39EF05F0C5991F5023
:100A5000110FD96EDA6A36C0DFFF1F2A070E1F6436
:100A600034EF05F036EF05F038EF05F0000E1F6E9D
:100A70001D06C5891200080E1D6041EF05F043EF09
:100A800005F057EF05F01E50110FD96EDA6ADF50EE
:100A90009A6E1E2A070E1E6450EF05F052EF05F005
:100AA00054EF05F0000E1E6E1D2A59EF05F00E01E1
:100AB000C59912002E502F10D8B461EF05F063EFE6
:100AC00005F070EF05F002D870EF05F00500FA6E42
:100AD0002E50FD6E2F50FE6EF850FF6EFA50120031
:100AE0000F011A9B120030503110D8B47AEF05F084
:100AF0007CEF05F089EF05F002D889EF05F00500DD
:100B0000FA6E3050FD6E3150FE6EF850FF6EFA50A6
:100B100012000F011A95120028502910D8B493EF33
:100B200005F095EF05F0A2EF05F002D8A2EF05F071
:100B30000500FA6E2850FD6E2950FE6EF850FF6ECB
:100B4000FA50120012000F011AA5A9EF05F0ABEF41
:100B500005F0ADEF05F073EC05F00F011AABB3EF44
:100B600005F0B5EF05F0B7EF05F05AEC05F012000F
:100B7000202A020E2018D8A4C0EF05F0C2EF05F01D
:100B8000CAEF05F08586000E206E0E01C29992EC28
:100B900006F021860F011A9512001C50090FD96E1C
:100BA000DA6A99CFDFFF1C2A070E1C64DAEF05F022
:100BB000DCEF05F0DEEF05F0000E1C6E1A2A1200C5
:100BC0004D0E11EC05F0440E11EC05F0219638ECB9
:100BD00006F00009D8B4EFEF05F0F1EF05F0E7EF0C
:100BE00005F012006F0ED66EF30ED46E000ED36EAB
:100BF0000E01CA9BC28BA60E366E0C0E376E59ECD8
:100C000006F0800ED56E1200000E0E01E16F7E0E12
:100C1000E26F660EE36F0F0EE46F110EE56F000ECC
:100C2000E66F120000EE01F0210EEE6AE806FDE12B
:100C300038903892000EF86E000196EF04F08CECBC
:100C400006F004EC06F056EC04F02CEC06F0F2ECA6
:100C500005F0D4EC04F01200620E0E01D86F000E05
:100C6000DA6F000EDC6F020EDE6F000EDD6F120019
:100C70009EB23DEF06F040EF06F0010E41EF06F0A8
:100C8000000E12000F011C950E01C29B8EEC06F0A7
:100C90002184219212008A840F011C850E01C28BCF
:100CA000219021941200859690EC06F00E01C289E5
:100CB000120036C028F037C029F0120036C02EF0DE
:100CC00037C02FF0120036C030F037C031F01200BC
:100CD00036C02CF037C02DF0120036C02AF037C0D5
:100CE0002BF0120036C024F037C025F0120036C0B9
:100CF00026F037C027F0120036C022F037C023F0AC
:100D000012000E01CA9B8CEC05F012009D989D8884
:100D10001200CDEC05F01200F29A1200D59E1200DE
:0C0D2000D59E1200D58E120012001200A9
:020000040030CA
:0C000000ECFFBFFF9FFFFFFFFFFFFFFFB3
:00000001FF
